:100000000C942A000C9447000C9447000C94470071
:100010000C94BF130C9447000C9447000C944700B9
:100020000C9447000C9447000C941B130C9447004D
:100030000C9447000C9447000C9447000C94470024
:100040000C9447000C9447000C9447000C94470014
:100050000C94470011241FBECFE5D8E0DEBFCDBF12
:1000600010E0A0E6B0E0ECEDFEE202C005900D92DB
:10007000AE3CB107D9F710E0AEECB0E001C01D9284
:10008000A83DB107E1F70E9415140C946C170C946D
:100090000000EF92FF920F931F937B018C0120E0F1
:1000A00030E040E05FE40E94490388238CF0C801FF
:1000B000B70120E030E040E05FE40E94C1010E940F
:1000C000A9039B01AC01205030404040504806C07D
:1000D000C801B7010E94A9039B01AC01B901CA0183
:1000E0001F910F91FF90EF900895A0E0B0E0EBE733
:1000F000F0E00C943517DC012B01FA019C91923051
:1001000008F439C1EB018881823008F433C194309E
:1001100069F4843009F02FC111969C91119789815F
:10012000981709F428C1A8E8B0E025C1843009F483
:1001300021C18230A9F4923009F01DC19A01AD01AC
:1001400088E0EA010990AE01E90109929E0181501F
:10015000C1F7E201898111969C918923818308C1AD
:10016000923009F407C112962D903C901397EB0141
:100170008A819B811496AD90BD90CD90DC901797AD
:10018000EC80FD800E811F819101281B390BB90184
:1001900037FF04C066277727621B730B6032710537
:1001A0000CF061C0121613066CF537014801062EDB
:1001B00004C096948794779467940A94D2F721E0C8
:1001C00030E040E050E004C0220F331F441F551FB1
:1001D0006A95D2F721503040404050402E213F21B7
:1001E00040235123211531054105510521F021E01E
:1001F00030E040E050E079018A01E628F72808293C
:1002000019293CC0232BD1F1260E371E350146019A
:10021000062E04C096948794779467940A94D2F734
:1002200021E030E040E050E004C0220F331F441FC3
:10023000551F6A95D2F721503040404050402A2146
:100240003B214C215D21211531054105510521F04E
:1002500021E030E040E050E059016A01A628B728CB
:10026000C828D9280BC0821593052CF01C01AA249C
:10027000BB24650103C0EE24FF24870111969C91E5
:10028000D20111968C91981709F445C0992339F041
:10029000A80197012A193B094C095D0906C0A6016E
:1002A00095012E193F09400B510B57FD08C01182D3
:1002B0003382228224833583468357831DC081E0A5
:1002C00081833382228288279927DC01821B930B4A
:1002D000A40BB50B84839583A683B7830DC0220F2F
:1002E000331F441F551F24833583468357838281E0
:1002F000938101979383828324813581468157813D
:10030000DA01C9010197A109B1098F5F9F4FAF4F72
:10031000BF4328F30BC0918333822282EA0CFB1C7B
:100320000C1D1D1DE482F5820683178383E0808304
:10033000248135814681578157FF1AC0C901AA27F8
:1003400097FDA095BA2F81709070A070B0705695EF
:10035000479537952795822B932BA42BB52B848318
:100360009583A683B7838281938101969383828349
:10037000DF0101C0D201CD01CDB7DEB7E2E10C94BF
:100380005117A0E2B0E0E7ECF1E00C94411769836B
:100390007A838B839C832D833E834F835887E9E048
:1003A000EE2EF12CEC0EFD1ECE010196B7010E943F
:1003B000D2048E010F5E1F4FCE010596B8010E9438
:1003C000D2048A8991E089278A8BC701B801AE01DE
:1003D000475E5F4F0E9475000E94FD03A096E6E015
:1003E0000C945D17A0E2B0E0E8EFF1E00C94411747
:1003F00069837A838B839C832D833E834F835887C5
:10040000F9E0EF2EF12CEC0EFD1ECE010196B701A6
:100410000E94D2048E010F5E1F4FCE010596B801D7
:100420000E94D204C701B801AE01475E5F4F0E942F
:1004300075000E94FD03A096E6E00C945D17A0E213
:10044000B0E0E5E2F2E00C94351769837A838B83A0
:100450009C832D833E834F835887CE010196BE0136
:10046000675F7F4F0E94D204CE010596BE016F5E8A
:100470007F4F0E94D2049985923088F0898982301A
:10048000C8F0943019F4823051F404C0843029F457
:10049000923081F488E890E0C6C0923049F420E0C0
:1004A0009A858A89981321E02A87CE010996BBC0D4
:1004B000823049F420E09A858A89981321E02A8BBA
:1004C000CE014196B0C02D843E844F8458886D88FB
:1004D0007E888F88988CEE24FF248701AA24BB2471
:1004E000650140E050E060E070E0E0E0F0E0C10174
:1004F00081709070892BE9F0E60CF71C081D191D1E
:100500009A01AB012A0D3B1D4C1D5D1D80E090E062
:10051000A0E0B0E0E614F7040805190520F481E036
:1005200090E0A0E0B0E0BA01A901480F591F6A1F8E
:100530007B1FAA0CBB1CCC1CDD1C97FE08C081E0F5
:1005400090E0A0E0B0E0A82AB92ACA2ADB2A3196B6
:10055000E032F10549F0660C771C881C991C569412
:10056000479437942794C3CFFA85EA892B893C892D
:100570008B859C85280F391F2E5F3F4F17C0CA01FE
:1005800081709070892B61F016950795F794E79428
:1005900080E090E0A0E0B0E8E82AF92A0A2B1B2BC3
:1005A00076956795579547952F5F3F4F77FDE7CF36
:1005B0000CC0440F551F661F771F17FD4160EE0CDE
:1005C000FF1C001F111F21503040403090E05907A0
:1005D00090E0690790E4790760F32B8F3C8FDB0193
:1005E000CA018F779070A070B07080349105A1051A
:1005F000B10561F447FD0AC0E114F10401051105DC
:1006000029F0405C5F4F6F4F7F4F40781A8EFE1786
:1006100011F081E08A8F4D8F5E8F6F8F78A383E01A
:10062000898FCE0149960E94FD03A096E2E10C94C9
:100630005117A8E1B0E0EFE1F3E00C9441176983B2
:100640007A838B839C832D833E834F83588789E0F5
:10065000E82EF12CEC0EFD1ECE010196B7010E9492
:10066000D2048E010F5E1F4FCE010596B8010E9485
:10067000D2048985823040F08989823028F0C70110
:10068000B8010E944A0501C08FEF6896E6E00C941D
:100690005D17A8E1B0E0EFE4F3E00C944117698343
:1006A0007A838B839C832D833E834F83588789E095
:1006B000E82EF12CEC0EFD1ECE010196B7010E9432
:1006C000D2048E010F5E1F4FCE010596B8010E9425
:1006D000D2048985823040F08989823028F0C701B0
:1006E000B8010E944A0501C08FEF6896E6E00C94BD
:1006F0005D17A8E1B0E0EFE7F3E00C9441176983E0
:100700007A838B839C832D833E834F83588789E034
:10071000E82EF12CEC0EFD1ECE010196B7010E94D1
:10072000D2048E010F5E1F4FCE010596B8010E94C4
:10073000D2048985823040F08989823028F0C7014F
:10074000B8010E944A0501C081E06896E6E00C9479
:100750005D17ACE0B0E0EFEAF3E00C944517698375
:100760007A838B839C83CE010196BE016B5F7F4FA2
:100770000E94D2048D81823061F1823050F1843048
:1007800021F48E81882351F12EC02F81388537FDC9
:1007900020C06E812F3131051CF06623F9F023C093
:1007A0008EE190E0821B930B29853A854B855C8511
:1007B00004C056954795379527958A95D2F76623B5
:1007C000B1F050954095309521953F4F4F4F5F4F79
:1007D0000EC020E030E040E050E009C02FEF3FEFD6
:1007E0004FEF5FE704C020E030E040E050E8B9019F
:1007F000CA012C96E2E00C946117DF92EF92FF920F
:100800000F931F93FC01E480F58006811781D1804E
:100810008081823048F480E090E0A0E1B0E0E82AF6
:10082000F92A0A2B1B2BA5C0843009F49FC0823003
:1008300021F4EE24FF24870105C0E114F104010531
:10084000110519F4E0E0F0E096C0628173819FEF3A
:10085000623879070CF05BC022E83FEF261B370BAC
:100860002A3131052CF020E030E040E050E02AC091
:10087000B801A701022E04C0769567955795479554
:100880000A94D2F781E090E0A0E0B0E004C0880FC5
:10089000991FAA1FBB1F2A95D2F70197A109B10979
:1008A0008E219F21A023B1230097A105B10521F03E
:1008B00081E090E0A0E0B0E09A01AB01282B392B59
:1008C0004A2B5B2BDA01C9018F779070A070B07052
:1008D00080349105A105B10539F427FF09C0205CDA
:1008E0003F4F4F4F5F4F04C0215C3F4F4F4F5F4F13
:1008F000E0E0F0E02030A0E03A07A0E04A07A0E402
:100900005A0710F0E1E0F0E079018A0127C0603871
:10091000710564F5FB01E158FF4FD801C7018F77DE
:100920009070A070B07080349105A105B10539F4C4
:10093000E7FE0DC080E490E0A0E0B0E004C08FE3EB
:1009400090E0A0E0B0E0E80EF91E0A1F1B1F17FFA1
:1009500005C016950795F794E794319687E01695AC
:100960000795F794E7948A95D1F705C0EE24FF2404
:100970008701EFEFF0E06E2F679566276795902F60
:100980009F77D794DD24D7948E2F8695492F462BB9
:10099000582F5D29B701CA011F910F91FF90EF9069
:1009A000DF900895FC01DB01408151812281622F9B
:1009B0006F7770E0221F2227221F9381892F880FD3
:1009C000822B282F30E0991F9927991F11969C930D
:1009D000119721153105A9F54115510561057105DD
:1009E00011F482E037C082E89FEF13969C938E93B8
:1009F00012979A01AB0167E0220F331F441F551F66
:100A00006A95D1F783E08C930DC0220F331F441FEA
:100A1000551F12968D919C911397019713969C9355
:100A20008E931297203080E0380780E0480780E4FA
:100A3000580758F314962D933D934D935C93179755
:100A400008952F3F310579F4411551056105710570
:100A500019F484E08C93089564FF03C081E08C93C3
:100A600012C01C9210C02F57304013963C932E9307
:100A7000129783E08C9387E0440F551F661F771F02
:100A80008A95D1F7706414964D935D936D937C9322
:100A9000179708951F93DC01FB019C91923008F495
:100AA00047C08081823008F443C0943051F41196DD
:100AB0001C91843099F58181682F70E0611B710968
:100AC0003FC0843021F0923031F48230B9F181811D
:100AD000882389F12DC011961C9111978230F1F075
:100AE00081811817D9F412962D913C911397828128
:100AF00093818217930794F028173907BCF0149656
:100B00008D919D910D90BC91A02D248135814681C0
:100B10005781281739074A075B0718F4112341F05A
:100B20000AC082179307A407B50740F4112319F0F0
:100B300061E070E005C06FEF7FEF02C060E070E041
:100B4000CB011F9108950F931F93DF93CF93CDB7E0
:100B5000DEB7C654D0400FB6F894DEBF0FBECDBF8F
:100B6000FE01ED5BFF4F80E090E0A4E3B2E4808300
:100B70009183A283B3838E01015C1F4FFE01ED5B65
:100B8000FF4F608171818281938120E030E04AEFE4
:100B900054E40E941F02DC01CB01F80180839183A1
:100BA000A283B383FE01FF9660817181828193816C
:100BB00020E030E040E85FE30E94790388232CF4D2
:100BC00081E090E09EAF8DAF46C0FE01FF96608150
:100BD00071818281938120E03FEF4FE757E40E94CB
:100BE0001903181664F5FE01ED5BFF4F60817181FA
:100BF0008281938120E030E040E251E40E941F02B4
:100C0000DC01CB01BC01CD010E944900DC01CB011C
:100C10009EAF8DAF0FC088EC90E09CAF8BAF8BADDB
:100C20009CAD0197F1F79CAF8BAF8DAD9EAD019759
:100C30009EAF8DAF8DAD9EAD009769F716C0FE01DA
:100C4000FF9660817181828193810E944900DC015D
:100C5000CB019EAF8DAF8DAD9EAD9AAF89AF89AD03
:100C60009AAD0197F1F79AAF89AF81E06FEF0E94DB
:100C7000F40B82E060E041E00E94090D82E061E057
:100C800041E00E94090D82E062E041E00E94090D0E
:100C900082E00E94C00880E090E0A0E8BFE38DAB56
:100CA0009EABAFABB8AF6DA97EA98FA998AD20E080
:100CB00030E04AEF54E40E941F02DC01CB0189AB13
:100CC0009AABABABBCAB69A97AA98BA99CA920E074
:100CD00030E040E85FE30E94790388232CF481E050
:100CE00090E098AB8FA73FC069A97AA98BA99CA96E
:100CF00020E03FEF4FE757E40E94190318164CF528
:100D00006DA97EA98FA998AD20E030E040E251E4C2
:100D10000E941F02DC01CB01BC01CD010E944900F1
:100D2000DC01CB0198AB8FA70FC088EC90E09EA7A9
:100D30008DA78DA59EA50197F1F79EA78DA78FA5DD
:100D400098A9019798AB8FA78FA598A9009769F7E5
:100D500014C069A97AA98BA99CA90E944900DC0149
:100D6000CB0198AB8FA78FA598A99CA78BA78BA524
:100D70009CA50197F1F79CA78BA788E30E94C00868
:100D800080E090E0A0E8BFE38FA398A7A9A7BAA747
:100D90006FA178A589A59AA520E030E04AEF54E438
:100DA0000E941F02DC01CB018BA39CA3ADA3BEA3B9
:100DB0006BA17CA18DA19EA120E030E040E85FE323
:100DC0000E94790388232CF481E090E09AA389A300
:100DD0003FC06BA17CA18DA19EA120E03FEF4FE71A
:100DE00057E40E94190318164CF56FA178A589A540
:100DF0009AA520E030E040E251E40E941F02DC01AD
:100E0000CB01BC01CD010E944900DC01CB019AA3BA
:100E100089A30FC088EC90E098A38F8F8F8D98A145
:100E20000197F1F798A38F8F89A19AA101979AA3AF
:100E300089A389A19AA1009769F714C06BA17CA12D
:100E40008DA19EA10E944900DC01CB019AA389A338
:100E500089A19AA19E8F8D8F8D8D9E8D0197F1F71F
:100E60009E8F8D8F8CE00E94C00880E090E0A0E80B
:100E7000BFE3898F9A8FAB8FBC8F698D7A8D8B8DF5
:100E80009C8D20E030E04AEF54E40E941F02DC0118
:100E9000CB018D8B9E8BAF8BB88F6D897E898F89AF
:100EA000988D20E030E040E85FE30E9479038823DA
:100EB0002CF481E090E09C8B8B8B3FC06D897E8908
:100EC0008F89988D20E03FEF4FE757E40E94190388
:100ED00018164CF5698D7A8D8B8D9C8D20E030E055
:100EE00040E251E40E941F02DC01CB01BC01CD01B4
:100EF0000E944900DC01CB019C8B8B8B0FC088ECDE
:100F000090E09A8B898B89899A890197F1F79A8B5E
:100F1000898B8B899C8901979C8B8B8B8B899C8976
:100F2000009769F714C06D897E898F89988D0E941A
:100F30004900DC01CB019C8B8B8B8B899C89988B26
:100F40008F878F8598890197F1F7988B8F870E94FB
:100F50009E0986E00E94C00880E090E0A0E8BFE320
:100F60008B879C87AD87BE876B857C858D859E85AD
:100F700020E030E04AEF54E40E941F02DC01CB0184
:100F80008F839887A987BA876F81788589859A85A5
:100F900020E030E040E85FE30E94790388232CF4EE
:100FA00081E090E09E838D833FC06F817885898545
:100FB0009A8520E03FEF4FE757E40E941903181687
:100FC0004CF56B857C858D859E8520E030E040E288
:100FD00051E40E941F02DC01CB01BC01CD010E9443
:100FE0004900DC01CB019E838D830FC088EC90E02B
:100FF0009C838B838B819C810197F1F79C838B83EE
:101000008D819E8101979E838D838D819E81009726
:1010100069F714C06F81788589859A850E94490097
:10102000DC01CB019E838D838D819E819A83898390
:1010300089819A810197F1F79A838983CA5BDF4F8F
:101040000FB6F894DEBF0FBECDBFCF91DF911F91D9
:101050000F910895DF93CF93CDB7DEB72F970FB6DB
:10106000F894DEBF0FBECDBF8F8781E06F850E94F1
:10107000380C82E060E041E00E94110E82E061E005
:1010800040E00E94110E0E94260A80E090E0A0E855
:10109000BFE38B879C87AD87BE876B857C858D85FD
:1010A0009E8520E030E04AEF54E40E941F02DC01FC
:1010B000CB018F839887A987BA876F8178858985C7
:1010C0009A8520E030E040E85FE30E9479038823BE
:1010D0002CF481E090E09E838D833FC06F81788502
:1010E00089859A8520E03FEF4FE757E40E94190376
:1010F00018164CF56B857C858D859E8520E030E04B
:1011000040E251E40E941F02DC01CB01BC01CD0191
:101110000E944900DC01CB019E838D830FC088ECC7
:1011200090E09C838B838B819C810197F1F79C835A
:101130008B838D819E8101979E838D838D819E817E
:10114000009769F714C06F81788589859A850E9418
:101150004900DC01CB019E838D838D819E819A8322
:10116000898389819A810197F1F79A8389832F96E0
:101170000FB6F894DEBF0FBECDBFCF91DF910895BB
:10118000DF93CF93CDB7DEB72F970FB6F894DEBFBE
:101190000FBECDBF8F8781E06F850E94380C82E043
:1011A00060E040E00E94110E82E061E040E00E94B9
:1011B000110E0E94260A80E090E0A0E8BFE38B8732
:1011C0009C87AD87BE876B857C858D859E8520E05D
:1011D00030E04AEF54E40E941F02DC01CB018F8310
:1011E0009887A987BA876F81788589859A8520E055
:1011F00030E040E85FE30E94790388232CF481E02B
:1012000090E09E838D833FC06F81788589859A8524
:1012100020E03FEF4FE757E40E94190318164CF502
:101220006B857C858D859E8520E030E040E251E431
:101230000E941F02DC01CB01BC01CD010E944900CC
:10124000DC01CB019E838D830FC088EC90E09C83F2
:101250008B838B819C810197F1F79C838B838D819C
:101260009E8101979E838D838D819E81009769F772
:1012700014C06F81788589859A850E944900DC01B8
:10128000CB019E838D838D819E819A838983898101
:101290009A810197F1F79A8389832F960FB6F89474
:1012A000DEBF0FBECDBFCF91DF910895DF93CF9307
:1012B00000D00F92CDB7DEB79B838A8319820EC010
:1012C0008981282F30E08A819B81FC01E20FF31F86
:1012D00080810E942A0889818F5F89838981282FD4
:1012E00030E08A819B81FC01E20FF31F808188231B
:1012F00039F70F900F900F90CF91DF910895DF9302
:10130000CF9300D00F92CDB7DEB78A836B8319825B
:101310008A81813019F48B81898306C08A81823069
:1013200019F48B81805C8983898180580E94C00870
:101330000F900F900F90CF91DF910895DF93CF938F
:10134000CDB7DEB72E970FB6F894DEBF0FBECDBF78
:1013500081E00E94C00880E090E0A0E2B1E48B87C9
:101360009C87AD87BE876B857C858D859E8520E0BB
:1013700030E04AEF54E40E941F02DC01CB018F836E
:101380009887A987BA876F81788589859A8520E0B3
:1013900030E040E85FE30E94790388232CF481E089
:1013A00090E09E838D833FC06F81788589859A8583
:1013B00020E03FEF4FE757E40E94190318164CF561
:1013C0006B857C858D859E8520E030E040E251E490
:1013D0000E941F02DC01CB01BC01CD010E9449002B
:1013E000DC01CB019E838D830FC088EC90E09C8351
:1013F0008B838B819C810197F1F79C838B838D81FB
:101400009E8101979E838D838D819E81009769F7D0
:1014100014C06F81788589859A850E944900DC0116
:10142000CB019E838D838D819E819A83898389815F
:101430009A810197F1F79A8389832E960FB6F894D3
:10144000DEBF0FBECDBFCF91DF910895DF93CF9365
:10145000CDB7DEB76C970FB6F894DEBF0FBECDBF29
:1014600082E062E041E00E94110E80E090E0A0E89E
:10147000BFE3898F9A8FAB8FBC8F698D7A8D8B8DEF
:101480009C8D20E030E04AEF54E40E941F02DC0112
:10149000CB018D8B9E8BAF8BB88F6D897E898F89A9
:1014A000988D20E030E040E85FE30E9479038823D4
:1014B0002CF481E090E09C8B8B8B3FC06D897E8902
:1014C0008F89988D20E03FEF4FE757E40E94190382
:1014D00018164CF5698D7A8D8B8D9C8D20E030E04F
:1014E00040E251E40E941F02DC01CB01BC01CD01AE
:1014F0000E944900DC01CB019C8B8B8B0FC088ECD8
:1015000090E09A8B898B89899A890197F1F79A8B58
:10151000898B8B899C8901979C8B8B8B8B899C8970
:10152000009769F714C06D897E898F89988D0E9414
:101530004900DC01CB019C8B8B8B8B899C89988B20
:101540008F878F8598890197F1F7988B8F8782E035
:1015500062E040E00E94110E80E090E0A0E8BFE36E
:101560008B879C87AD87BE876B857C858D859E85A7
:1015700020E030E04AEF54E40E941F02DC01CB017E
:101580008F839887A987BA876F81788589859A859F
:1015900020E030E040E85FE30E94790388232CF4E8
:1015A00081E090E09E838D833FC06F81788589853F
:1015B0009A8520E03FEF4FE757E40E941903181681
:1015C0004CF56B857C858D859E8520E030E040E282
:1015D00051E40E941F02DC01CB01BC01CD010E943D
:1015E0004900DC01CB019E838D830FC088EC90E025
:1015F0009C838B838B819C810197F1F79C838B83E8
:101600008D819E8101979E838D838D819E81009720
:1016100069F714C06F81788589859A850E94490091
:10162000DC01CB019E838D838D819E819A8389838A
:1016300089819A810197F1F79A8389836C960FB615
:10164000F894DEBF0FBECDBFCF91DF910895DF9339
:10165000CF9300D000D00F92CDB7DEB78A836B83D3
:101660004C832D83198280E40E94C00819820CC02B
:101670008981882F90E0FC01E057FF4F80810E9414
:101680002A0889818F5F89838981803388F38A81E1
:101690006B810E947F098C81898306C089810E94A9
:1016A0002A0889818F5F898399818D819817B0F38A
:1016B0000F900F900F900F900F90CF91DF910895A2
:1016C000DF93CF93CDB7DEB727970FB6F894DEBF81
:1016D0000FBECDBF9C838B836D834E832F838D8103
:1016E000882F90E0880F991F880F991F880F991FE6
:1016F0008A838A81805C0E94C00819820EC0898119
:10170000282F30E08B819C81FC01E20FF31F808148
:101710000E942A0889818F5F89838981883078F3C4
:101720008E816F810E947F0927960FB6F894DEBFE5
:101730000FBECDBFCF91DF910895DF93CF93CDB78B
:10174000DEB72E970FB6F894DEBF0FBECDBF9E87D3
:101750008D871A828D859E85009711F580E30E9402
:101760002A0822C08A81E82FF0E08D859E852AE034
:1017700030E0B9010E942117282F205DCE01039689
:10178000E80FF91F20838D859E852AE030E0B9019E
:101790000E942117CB019E878D878A818F5F8A8364
:1017A0008D859E850097F1F68A81898311C0898194
:1017B000882F90E09C0121503040CE010396FC011F
:1017C000E20FF31F80810E942A088981815089835A
:1017D0008981882361F72E960FB6F894DEBF0FBE7D
:1017E000CDBFCF91DF910895DF93CF9300D000D08C
:1017F000CDB7DEB789836A838981843090F589818A
:10180000282F30E03C832B838B819C818130910594
:10181000D1F02B813C81223031052CF48B819C81CD
:10182000009761F01EC02B813C812230310581F090
:101830008B819C818330910581F013C0EAE3F0E055
:101840008A8180830EC0E7E3F0E08A81808309C04B
:10185000E4E3F0E08A81808304C0E1E3F0E08A8180
:1018600080830F900F900F900F90CF91DF9108958C
:10187000DF93CF9300D000D0CDB7DEB789836A83E2
:101880008981843090F58981282F30E03C832B8337
:101890008B819C8181309105D1F02B813C8122305C
:1018A00031052CF48B819C81009761F01EC02B8147
:1018B0003C812230310581F08B819C818330910500
:1018C00081F013C0EBE3F0E08A8180830EC0E8E38F
:1018D000F0E08A81808309C0E5E3F0E08A818083BB
:1018E00004C0E2E3F0E08A8180830F900F900F90B4
:1018F0000F90CF91DF910895DF93CF9300D00F9297
:10190000CDB7DEB789838981843008F03EC08981F4
:10191000282F30E03B832A838A819B818130910587
:10192000E9F02A813B81223031052CF48A819B81A8
:10193000009761F02AC02A813B8122303105B1F045
:101940008A819B8183309105C9F01FC0ABE3B0E071
:10195000EBE3F0E0808180958C9317C0A8E3B0E0C2
:10196000E8E3F0E0808180958C930FC0A5E3B0E0C0
:10197000E5E3F0E0808180958C9307C0A2E3B0E0BE
:10198000E2E3F0E0808180958C930F900F900F90B0
:10199000CF91DF910895DF93CF9300D00F92CDB711
:1019A000DEB789838981843070F58981282F30E002
:1019B0003B832A838A819B8181309105C9F02A81EA
:1019C0003B81223031052CF48A819B81009761F0A4
:1019D0001AC02A813B812230310571F08A819B81B6
:1019E0008330910569F00FC0EBE3F0E010820BC08B
:1019F000E8E3F0E0108207C0E5E3F0E0108203C006
:101A0000E2E3F0E010820F900F900F90CF91DF9102
:101A10000895DF93CF93CDB7DEB727970FB6F8942D
:101A2000DEBF0FBECDBF89836A834B83898184303B
:101A300008F0EEC08A81883008F0EAC08B818823E4
:101A400009F074C08981282F30E03F832E838E8176
:101A50009F818130910559F12E813F8122303105DE
:101A60002CF48E819F81009769F0D2C02E813F8136
:101A70002230310589F18E819F818330910509F4EF
:101A800040C0C6C0AAE3B0E0EAE3F0E08081482F9E
:101A90008A81282F30E081E090E0022E02C0880F7A
:101AA000991F0A94E2F7809584238C93B1C0A7E331
:101AB000B0E0E7E3F0E08081482F8A81282F30E012
:101AC00081E090E0022E02C0880F991F0A94E2F78D
:101AD000809584238C939CC0A4E3B0E0E4E3F0E021
:101AE0008081482F8A81282F30E081E090E0022E0B
:101AF00002C0880F991F0A94E2F7809584238C9383
:101B000087C0A1E3B0E0E1E3F0E08081482F8A8163
:101B1000282F30E081E090E0022E02C0880F991F4C
:101B20000A94E2F7809584238C9372C08B81813074
:101B300009F06EC08981282F30E03D832C838C8191
:101B40009D818130910549F12C813D812230310503
:101B50002CF48C819D81009761F05AC02C813D81CD
:101B60002230310571F18C819D8183309105E9F13D
:101B70004FC0AAE3B0E0EAE3F0E08081482F8A8119
:101B8000282F30E081E090E0022E02C0880F991FDC
:101B90000A94E2F7842B8C933BC0A7E3B0E0E7E321
:101BA000F0E08081482F8A81282F30E081E090E0AA
:101BB000022E02C0880F991F0A94E2F7842B8C939F
:101BC00027C0A4E3B0E0E4E3F0E08081482F8A81FD
:101BD000282F30E081E090E0022E02C0880F991F8C
:101BE0000A94E2F7842B8C9313C0A1E3B0E0E1E305
:101BF000F0E08081482F8A81282F30E081E090E05A
:101C0000022E02C0880F991F0A94E2F7842B8C934E
:101C100027960FB6F894DEBF0FBECDBFCF91DF91F0
:101C20000895DF93CF93CDB7DEB727970FB6F8941B
:101C3000DEBF0FBECDBF89836A834B838981843029
:101C400008F0F8C08A81883008F0F4C08B818F3F9B
:101C500039F08B81813021F08B81882309F0EAC033
:101C60008B81813009F06FC08981282F30E03F835C
:101C70002E838E819F818130910549F12E813F8194
:101C8000223031052CF48E819F81009761F0D2C003
:101C90002E813F812230310571F18E819F81833009
:101CA0009105E9F1C7C0ABE3B0E0EBE3F0E0808180
:101CB000482F8A81282F30E081E090E0022E02C078
:101CC000880F991F0A94E2F7842B8C93B3C0A8E382
:101CD000B0E0E8E3F0E08081482F8A81282F30E0EF
:101CE00081E090E0022E02C0880F991F0A94E2F76B
:101CF000842B8C939FC0A5E3B0E0E5E3F0E0808106
:101D0000482F8A81282F30E081E090E0022E02C027
:101D1000880F991F0A94E2F7842B8C938BC0A2E35F
:101D2000B0E0E2E3F0E08081482F8A81282F30E0A4
:101D300081E090E0022E02C0880F991F0A94E2F71A
:101D4000842B8C9377C08B81882309F073C08981A1
:101D5000282F30E03D832C838C819D81813091053B
:101D600059F12C813D81223031052CF48C819D81EB
:101D7000009769F05FC02C813D812230310589F1E7
:101D80008C819D818330910509F440C053C0ABE341
:101D9000B0E0EBE3F0E08081482F8A81282F30E02B
:101DA00081E090E0022E02C0880F991F0A94E2F7AA
:101DB000809584238C933EC0A8E3B0E0E8E3F0E094
:101DC0008081482F8A81282F30E081E090E0022E28
:101DD00002C0880F991F0A94E2F7809584238C93A0
:101DE00029C0A5E3B0E0E5E3F0E08081482F8A81D7
:101DF000282F30E081E090E0022E02C0880F991F6A
:101E00000A94E2F7809584238C9314C0A2E3B0E097
:101E1000E2E3F0E08081482F8A81282F30E081E0E2
:101E200090E0022E02C0880F991F0A94E2F7809575
:101E300084238C9327960FB6F894DEBF0FBECDBFD8
:101E4000CF91DF910895DF93CF9300D000D00F9210
:101E5000CDB7DEB78A836B8319828A81843008F01C
:101E60006BC08B81883008F067C08A81282F30E0F2
:101E70003D832C834C815D814130510541F18C8142
:101E80009D818230910534F42C813D8121153105ED
:101E900061F052C04C815D814230510551F18C811D
:101EA0009D8183309105B9F147C0E9E3F0E080817D
:101EB000282F30E08B81882F90E0A90102C0559532
:101EC00047958A95E2F7CA018170898335C0E6E3B8
:101ED000F0E08081282F30E08B81882F90E0A901ED
:101EE00002C0559547958A95E2F7CA0181708983AA
:101EF00023C0E3E3F0E08081282F30E08B81882F3E
:101F000090E0A90102C0559547958A95E2F7CA016C
:101F10008170898311C0E0E3F0E08081282F30E0F8
:101F20008B81882F90E0A90102C0559547958A952D
:101F3000E2F7CA018170898389810F900F900F9019
:101F40000F900F90CF91DF910895DF93CF9300D042
:101F500000D0CDB7DEB789836A838981843008F0E9
:101F600072C08A81883008F06EC08981282F30E0E5
:101F70003C832B838B819C818130910549F12B819E
:101F80003C81223031052CF48B819C81009761F0DB
:101F90005AC02B813C812230310571F18B819C81AB
:101FA00083309105E9F14FC0ABE3B0E0EBE3F0E043
:101FB0008081482F8A81282F30E081E090E0022E36
:101FC00002C0880F991F0A94E2F784278C933BC0C4
:101FD000A8E3B0E0E8E3F0E08081482F8A81282F71
:101FE00030E081E090E0022E02C0880F991F0A9431
:101FF000E2F784278C9327C0A5E3B0E0E5E3F0E0A7
:102000008081482F8A81282F30E081E090E0022EE5
:1020100002C0880F991F0A94E2F784278C9313C09B
:10202000A2E3B0E0E2E3F0E08081482F8A81282F2C
:1020300030E081E090E0022E02C0880F991F0A94E0
:10204000E2F784278C930F900F900F900F90CF9111
:10205000DF910895DF93CF9300D000D0CDB7DEB7E6
:1020600089836A838981843008F077C08A818830C7
:1020700008F073C08981282F30E03C832B838B814B
:102080009C818130910559F12B813C8122303105B1
:102090002CF48B819C81009769F05FC02B813C817F
:1020A0002230310589F18B819C818330910509F4BF
:1020B00040C053C0ABE3B0E0EBE3F0E08081482FD9
:1020C0008A81282F30E081E090E0022E02C0880F44
:1020D000991F0A94E2F7809584238C933EC0A8E36D
:1020E000B0E0E8E3F0E08081482F8A81282F30E0DB
:1020F00081E090E0022E02C0880F991F0A94E2F757
:10210000809584238C9329C0A5E3B0E0E5E3F0E05B
:102110008081482F8A81282F30E081E090E0022ED4
:1021200002C0880F991F0A94E2F7809584238C934C
:1021300014C0A2E3B0E0E2E3F0E08081482F8A819E
:10214000282F30E081E090E0022E02C0880F991F16
:102150000A94E2F7809584238C930F900F900F9050
:102160000F90CF91DF910895DF93CF9300D000D0EF
:102170000F92CDB7DEB789836A834B838981843020
:1021800008F03DC18A81883008F039C18981282F43
:1021900030E03D832C838C819D818130910509F451
:1021A0005DC02C813D81223031052CF48C819D81D4
:1021B000009771F024C12C813D812230310509F452
:1021C00093C08C819D818330910509F4D3C017C1E0
:1021D0008B81813071F5ABE3B0E0EBE3F0E080811F
:1021E000482F8A81282F30E081E090E002C0880FDC
:1021F000991F2A95E2F7842B8C93AAE3B0E0EAE3D7
:10220000F0E08081482F8A81282F30E081E090E043
:10221000022E02C0880F991F0A94E2F7809584234A
:102220008C93A0E5B0E0E0E5F0E080818B7F8C93BB
:10223000E6C0ABE3B0E0EBE3F0E08081482F8A81B9
:10224000282F30E081E090E0022E02C0880F991F15
:102250000A94E2F7809584238C93D1C08B818130DE
:1022600071F5A8E3B0E0E8E3F0E08081482F8A81CF
:10227000282F30E081E090E002C0880F991F2A9556
:10228000E2F7842B8C93A7E3B0E0E7E3F0E08081F2
:10229000482F8A81282F30E081E090E0022E02C092
:1022A000880F991F0A94E2F7809584238C93A0E508
:1022B000B0E0E0E5F0E080818B7F8C93A0C0A8E3E4
:1022C000B0E0E8E3F0E08081482F8A81282F30E0F9
:1022D00081E090E0022E02C0880F991F0A94E2F775
:1022E000809584238C938BC08B81813071F5A5E31D
:1022F000B0E0E5E3F0E08081482F8A81282F30E0CC
:1023000081E090E002C0880F991F2A95E2F7842BA4
:102310008C93A4E3B0E0E4E3F0E08081482F8A816D
:10232000282F30E081E090E0022E02C0880F991F34
:102330000A94E2F7809584238C93A0E5B0E0E0E571
:10234000F0E080818B7F8C935AC0A5E3B0E0E5E399
:10235000F0E08081482F8A81282F30E081E090E0F2
:10236000022E02C0880F991F0A94E2F780958423F9
:102370008C9345C08B81813071F5A2E3B0E0E2E33C
:10238000F0E08081482F8A81282F30E081E090E0C2
:1023900002C0880F991F2A95E2F7842B8C93A1E342
:1023A000B0E0E1E3F0E08081482F8A81282F30E01F
:1023B00081E090E0022E02C0880F991F0A94E2F794
:1023C000809584238C93A0E5B0E0E0E5F0E0808187
:1023D0008B7F8C9314C0A2E3B0E0E2E3F0E0808155
:1023E000482F8A81282F30E081E090E0022E02C041
:1023F000880F991F0A94E2F7809584238C930F909D
:102400000F900F900F900F90CF91DF910895DF9371
:10241000CF93CDB7DEB7AFE5B0E0EFE5F0E0808178
:1024200080688C93CF91DF910895DF93CF93CDB7E0
:10243000DEB7AFE5B0E0EFE5F0E080818F778C9319
:10244000CF91DF910895DF93CF9300D000D0CDB727
:10245000DEB769837A838B839C838A816FEF0E94C6
:10246000F40B0F900F900F900F90CF91DF91089584
:10247000DF93CF9300D000D0CDB7DEB769837A83E6
:102480008B839C838981882369F48B819C81692F4C
:1024900041E00E94090D8B819C81692F40E00E94E0
:1024A000110E0FC08981813061F48B819C81692F6D
:1024B00041E00E94090D8B819C81692F41E00E94BF
:1024C000110E0F900F900F900F90CF91DF91089504
:1024D000DF93CF9300D000D0CDB7DEB769837A8386
:1024E0008B839C838981882369F48B819C81692FEC
:1024F00041E00E94090D8B819C81692F41E00E947F
:10250000110E0FC08981813061F48B819C81692F0C
:1025100041E00E94090D8B819C81692F40E00E945F
:10252000110E0F900F900F900F90CF91DF910895A3
:10253000DF93CF9300D000D00F92CDB7DEB7698381
:102540007A838B839C834D838981882369F42A81D4
:102550008D81882F90E0FC01E054FF4F9081822F05
:10256000692F0E94380C11C08981813071F42A8151
:102570008D81882F90E0FC01E054FF4F8081982FDF
:102580009095822F692F0E94380C0F900F900F901A
:102590000F900F90CF91DF910895DF93CF93CDB738
:1025A000DEB7A3E5B0E0E3E5F0E0808188608C93DE
:1025B000A3E5B0E0E3E5F0E080818F7B8C93A3E5B9
:1025C000B0E0E3E5F0E0808181608C93A3E5B0E0CA
:1025D000E3E5F0E0808182608C93A3E5B0E0E3E581
:1025E000F0E080818B7F8C93A9E5B0E0E9E5F0E035
:1025F000808182608C93CF91DF910895DF93CF9398
:1026000000D00F92CDB7DEB79B838A8319828A816F
:102610009B81009739F08A819B819093CF008093B2
:10262000CE0002C081E0898389810F900F900F90C6
:10263000CF91DF9108951F920F920FB60F92112440
:102640002F933F934F935F936F937F938F939F93BA
:10265000AF93BF93EF93FF93DF93CF93CDB7DEB7E5
:102660008091CE009091CF00009729F0E091CE00AC
:10267000F091CF000995CF91DF91FF91EF91BF913C
:10268000AF919F918F917F916F915F914F913F910A
:102690002F910F900FBE0F901F901895DF93CF933F
:1026A0000F92CDB7DEB78983ECE5F0E089818083B6
:1026B0000F90CF91DF910895DF93CF93CDB7DEB721
:1026C000A3E5B0E0E3E5F0E0808180628C93A3E5D0
:1026D000B0E0E3E5F0E080818F7E8C93CF91DF91D5
:1026E0000895DF93CF93CDB7DEB7A5E4B0E0E5E47E
:1026F000F0E0808188608C93A5E4B0E0E5E4F0E050
:1027000080818F7B8C93A5E4B0E0E5E4F0E08081EC
:1027100081608C93A5E4B0E0E5E4F0E08081826024
:102720008C93A5E4B0E0E5E4F0E080818B7F8C93AE
:10273000A9E5B0E0E9E5F0E0808180688C93CF9175
:10274000DF910895DF93CF9300D00F92CDB7DEB71E
:102750009B838A8319828A819B81009739F08A81C1
:102760009B819093D1008093D00002C081E0898347
:1027700089810F900F900F90CF91DF9108951F9254
:102780000F920FB60F9211242F933F934F935F93A5
:102790006F937F938F939F93AF93BF93EF93FF9329
:1027A000DF93CF93CDB7DEB78091D0009091D10069
:1027B000009729F0E091D000F091D1000995CF91D8
:1027C000DF91FF91EF91BF91AF919F918F917F9199
:1027D0006F915F914F913F912F910F900FBE0F908E
:1027E0001F901895DF93CF930F92CDB7DEB78983F3
:1027F000E3E4F0E0898180830F90CF91DF91089529
:10280000DF93CF93CDB7DEB7A5E4B0E0E5E4F0E029
:10281000808180628C93A5E4B0E0E5E4F0E0808103
:102820008F7E8C93CF91DF910895DF93CF93CDB7B7
:10283000DEB780E06FEF0E94F40B8DE70E944E132D
:102840000E94CD128DE70E94F2130E9471130E9424
:10285000A3058091CA009091CB00A091CC00B091CB
:10286000CD00BC01CD010E94231286EF94E10E94AD
:10287000FE1280E494E10E94A2130E940712FFCF8F
:10288000DF93CF93CDB7DEB78091D2009091D30084
:10289000A091D400B091D5000196A11DB11D8093E7
:1028A000D2009093D300A093D400B093D500809130
:1028B000D2009091D300A091D400B091D500843F74
:1028C00021E0920720E0A20720E0B207E1F40E9495
:1028D0009E0980E690E00E94560982E066E040E0B2
:1028E00022E00E94270B80E060E041E00E94110E90
:1028F00080E061E040E00E94110E80E062E040E094
:102900000E94110E70C08091D2009091D300A091CE
:10291000D400B091D50080322EE4920720E0A207C7
:1029200020E0B207E1F40E949E098CE690E00E944C
:10293000560982E066E042E024E00E94270B80E036
:1029400060E040E00E94110E80E061E041E00E9402
:10295000110E80E062E040E00E94110E44C08091C0
:10296000D2009091D300A091D400B091D5008033D3
:1029700025E7920720E0A20720E0B207E1F40E94D9
:102980009E0989E790E00E94560982E066E044E0F3
:1029900026E00E94270B80E060E040E00E94110EDC
:1029A00080E061E040E00E94110E80E062E041E0E2
:1029B0000E94110E18C08091D2009091D300A09176
:1029C000D400B091D500803523EC920720E0A20717
:1029D00020E0B20741F41092D2001092D30010927E
:1029E000D4001092D500CF91DF910895DF93CF935B
:1029F000CDB7DEB78091D6009091D7000196909325
:102A0000D7008093D6008091D6009091D70023E024
:102A1000883E920771F48091CA009091CB00A091FA
:102A2000CC00B091CD00BC01CD0149E00E949812CC
:102A30001DC18091D6009091D70027E0803D92077C
:102A400071F48091CA009091CB00A091CC00B0911C
:102A5000CD00BC01CD0148E00E94981207C18091D1
:102A6000D6009091D7002BE0883B920771F48091BB
:102A7000CA009091CB00A091CC00B091CD00BC01D8
:102A8000CD0147E00E949812F1C08091D60090914C
:102A9000D7002FE0803A920771F48091CA0090919C
:102AA000CB00A091CC00B091CD00BC01CD0146E09F
:102AB0000E949812DBC08091D6009091D70023E14C
:102AC0008838920771F48091CA009091CB00A09150
:102AD000CC00B091CD00BC01CD0145E00E94981220
:102AE000C5C08091D6009091D70027E1803792072A
:102AF00071F48091CA009091CB00A091CC00B0916C
:102B0000CD00BC01CD0144E00E949812AFC080917D
:102B1000D6009091D7002BE18835920771F480910F
:102B2000CA009091CB00A091CC00B091CD00BC0127
:102B3000CD0143E00E94981299C08091D6009091F7
:102B4000D7002FE18034920771F48091CA009091F0
:102B5000CB00A091CC00B091CD00BC01CD0142E0F2
:102B60000E94981283C08091D6009091D70023E2F2
:102B70008832920771F48091CA009091CB00A091A5
:102B8000CC00B091CD00BC01CD0141E00E94981273
:102B90006DC08091D6009091D70027E280319207D6
:102BA00071F48091CA009091CB00A091CC00B091BB
:102BB000CD00BC01CD0140E00E94981257C0809129
:102BC000D6009091D7002EE2803E920771F480915A
:102BD000CA009091CB00A091CC00B091CD00BC0177
:102BE000CD0143E00E94981241C08091D60090919F
:102BF000D70022E3883C920771F48091CA0090913B
:102C0000CB00A091CC00B091CD00BC01CD0142E041
:102C10000E9498122BC08091D6009091D70026E395
:102C2000803B920771F48091CA009091CB00A091F3
:102C3000CC00B091CD00BC01CD0141E00E949812C2
:102C400015C08091D6009091D7002AE38839920769
:102C500069F48091CA009091CB00A091CC00B09112
:102C6000CD00BC01CD0140E00E9498128091D600B9
:102C70009091D7002EE38038920771F48091CA00BA
:102C80009091CB00A091CC00B091CD00BC01CD01C2
:102C900049E00E949812D2C08091D6009091D7004E
:102CA00022E48836920771F48091CA009091CB009B
:102CB000A091CC00B091CD00BC01CD0148E00E94B4
:102CC0009812BCC08091D6009091D70026E4803540
:102CD000920771F48091CA009091CB00A091CC0032
:102CE000B091CD00BC01CD0147E00E949812A6C072
:102CF0008091D6009091D7002AE48833920771F42E
:102D00008091CA009091CB00A091CC00B091CD00F1
:102D1000BC01CD0146E00E94981290C08091D6007F
:102D20009091D7002EE48032920771F48091CA000E
:102D30009091CB00A091CC00B091CD00BC01CD0111
:102D400045E00E9498127AC08091D6009091D700F9
:102D500022E58830920771F48091CA009091CB00EF
:102D6000A091CC00B091CD00BC01CD0144E00E9407
:102D7000981264C08091D6009091D70025E5803FDD
:102D8000920771F48091CA009091CB00A091CC0081
:102D9000B091CD00BC01CD0143E00E9498124EC01D
:102DA0008091D6009091D70029E5883D920771F473
:102DB0008091CA009091CB00A091CC00B091CD0041
:102DC000BC01CD0142E00E94981238C08091D6002B
:102DD0009091D7002DE5803C920771F48091CA0054
:102DE0009091CB00A091CC00B091CD00BC01CD0161
:102DF00041E00E94981222C08091D6009091D700A5
:102E000021E6883A920771F48091CA009091CB0034
:102E1000A091CC00B091CD00BC01CD0140E00E945A
:102E200098120CC08091D6009091D70025E6803989
:102E3000920721F41092D7001092D600CF91DF9123
:102E40000895AA1BBB1B51E107C0AA1FBB1FA617F1
:102E5000B70710F0A61BB70B881F991F5A95A9F743
:102E600080959095BC01CD0108952F923F924F928D
:102E70005F926F927F928F929F92AF92BF92CF920A
:102E8000DF92EF92FF920F931F93CF93DF93CDB713
:102E9000DEB7CA1BDB0B0FB6F894DEBF0FBECDBF8B
:102EA00009942A88398848885F846E847D848C845C
:102EB0009B84AA84B984C884DF80EE80FD800C8165
:102EC0001B81AA81B981CE0FD11D0FB6F894DEBF48
:0C2ED0000FBECDBFED010895F894FFCFB8
:102EDC00204361722043616E20476F002020202028
:102EEC00414C4C2053746F70002050656F706C65B2
:102EFC002043616E20474F000000000000000000DE
:102F0C000000000E1F1100000000000E1F11000039
:102F1C00040E1E1F1F1F0E0E040E1E1F1F1F0E0E53
:102F2C00000E0A041F150A11000E0A041F150A11BF
:0E2F3C003F065B4F666D7D077F6F0103020746
:00000001FF
